:100000000C9433000C945D000C944B010C944B0148
:100010000C944B010C944B010C944B010C944B0130
:100020000C944B010C944B010C94AD000C94860085
:100030000C944B010C944B010C944B010C944B0110
:100040000C944B010C944B010C944B010C944B0100
:100050000C944B0100600067800067006F0002A4F1
:10006000006F0071800011241FBECFE5D8E0DEBF15
:10007000CDBFE4E5F0E040E017C0B591A591359122
:100080002591059107FD0CC095918591EF01F92F00
:10009000E82F05900D92A217B307D9F7FE0104C00F
:1000A0001D92A217B307E1F7E536F40731F70E9476
:0A00B00035010C944001F894FFCFD5
:1000BA001F920F920FB60F9211242F933F934F93D3
:1000CA005F936F937F938F939F93AF93BF93EF93B6
:1000DA00FF93E0916F00F0917000309709F0099555
:1000EA00FF91EF91BF91AF919F918F917F916F9106
:1000FA005F914F913F912F910F900FBE0F901F90DC
:02010A00189546
:10010C001F920F920FB60F9211242F933F934F9380
:10011C005F936F937F938F939F93AF93BF93EF9363
:10012C00FF93E0916500F09166000995FF91EF91C6
:10013C00BF91AF919F918F917F916F915F914F91F3
:0E014C003F912F910F900FBE0F901F901895AE
:10015A001F920F920FB60F9211242F933F934F9332
:10016A005F936F937F938F939F93AF93BF93EF9315
:10017A00FF93E0916500F09166000995FF91EF9178
:10018A00BF91AF919F918F917F916F915F914F91A5
:0E019A003F912F910F900FBE0F901F90189560
:1001A8000F931F93CF938C01862F90E00896880FAA
:1001B800880F880F0E94EF00C0E007C0F801EC0F1D
:1001C800F11D80810E940701CF5FC830B8F3CF913D
:0601D8001F910F91089534
:1001DE0088BB8BB38F7E8BBB8BB38F7D8BBB8BB36F
:1001EE0080648BBB82E08A95F1F700C08BB38F7B66
:1001FE008BBB8FE697E10197F1F700C000000895E1
:10020E0088BB8BB380618BBB8BB38F7D8BBB8BB36A
:10021E0080648BBB82E08A95F1F700C08BB38F7B35
:10022E008BBB8FEC97E00197F1F700C000000895AB
:10023E008FEF8ABB87BB8FE39CE90197F1F700C074
:10024E00000088E30E94EF008CE00E94EF0086E041
:0C025E000E94EF0081E00E94EF00089574
:10026A000E941F0160E087E690E00E94D40080E0CF
:06027A000E940701FCCF09
:10028000EC010E9450010E944F01CE010E945101D9
:06029000CE010E944D01A9
:040296000C940000C4
:04029A000E945B0063
:02029E000895C1
:0202A0000895BF
:0202A2000895BD
:0802A400040E0E0E1F00040001
:00000001FF
